:020000040800F2
:1000000000040020E1010008E3010008E20100080B
:10001000E2010008E2010008E2010008E201000834
:10002000E2010008E2010008E2010008652C000876
:10003000E2010008E2010008E2010008E201000814
:10004000E2010008E2010008E2010008E201000804
:10005000E2010008E2010008C52E0008F12E0008A8
:100060001D2F0008492F0008752F0008E201000825
:10007000E2010008E2010008E2010008E2010008D4
:10008000E2010008E2010008E2010008E2010008C4
:10009000E2010008E2010008E2010008A12F0008C7
:1000A000E2010008E2010008E2010008E2010008A4
:1000B000E12C0008E2010008E2010008E20100086A
:1000C000E2010008E2010008E2010008E201000884
:1000D000E2010008E2010008E2010008E201000874
:1000E00009300008E2010008E2010008E20100080E
:1000F000E2010008E2010008E2010008E201000854
:10010000E2010008E2010008E2010008E201000843
:10011000E2010008E2010008E2010008E201000833
:10012000E2010008E2010008E2010008E201000823
:10013000E2010008E2010008E2010008E201000813
:10014000E2010008E2010008E20100087123000852
:10015000E2010008E2010008E2010008E2010008F3
:10016000E2010008E2010008E2010008E2010008E3
:10017000E2010008E2010008E2010008E2010008D3
:10018000E2010008E2010008E2010008E2010008C3
:10019000E2010008E2010008E2010008E2010008B3
:1001A000E2010008E2010008E2010008E2010008A3
:1001B000E2010008E2010008E2010008E201000893
:1001C000E2010008E2010008E2010008E201000883
:1001D000E2010008E2010008E2010008E201000873
:1001E00002E000F000F8FEE772B6394880F30888B4
:1001F000384880F3098838484EF60851CEF200019D
:10020000086040F20000CCF200004EF63471CEF2ED
:1002100000010860BFF34F8FBFF36F8F40F2000003
:10022000C0F2F0004EF68851CEF200010860BFF334
:100230004F8FBFF36F8F4FF00000E1EE100A4EF6C4
:100240003C71CEF200010860062080F31488BFF3F1
:100250006F8F01F059FD02F09DFC4FF055301F49A2
:100260001B4A91423CBF41F8040BFAE71C49194A6A
:1002700091423CBF41F8040BFAE71A491A4A1B4B5A
:100280009A423EBF51F8040B42F8040BF8E70020F5
:100290001749184A91423CBF41F8040BFAE701F0B4
:1002A00037FD02F0D3FC144C144DAC4203DA54F881
:1002B000041B8847F9E700F03FF8114C114DAC42A0
:1002C00003DA54F8041B8847F9E701F01FBD00006A
:1002D000000400200024002000000008000000208E
:1002E00000040020383400080024002028240020C6
:1002F00028240020E8330020E0010008E001000885
:10030000E0010008E00100082DE9F04F2DED108A12
:10031000C1F80CD0C3689D46BDEC108ABDE8F08FD3
:10032000002383F311882846A047002001F0BCF980
:1003300001F080F900DFFEE738B5184B6FF0790265
:1003400000241A700F225C709C70DC701C715C7150
:100350009C71DC711C725C729A72DC7201F0B4FCEC
:100360000F4B984217D00133984241F2883412BFA4
:10037000002500240125002001F0ACFC0DB100F0A7
:1003800053F800F04FFC00F02DFB204600F0A0F8E1
:1003900000F04AF8F9E72546EDE700BF28240020E1
:1003A000010007B008B500F0BFFAA0F120035842E1
:1003B000584108BD07B5054B02211B88ADF8043034
:1003C00001A800F0FFFA03B05DF804FB0431000857
:1003D00010B51148C3680BB101F0ECF90F4C104A8D
:1003E0000D4800234FF47A7101F0A8F9236813B186
:1003F0002368013B2360636813B16368013B63605A
:10040000084B1B7833B9636823B9022000F0C6FBA0
:100410003223636010BD00BF342400204C2900202B
:10042000D10300084824002038B5224C236801334A
:100430003ED0214D214B2A689A4239D9204B9B68E6
:1004400003F1006303F580339A4231D2002000F0BB
:10045000E3FA1C4B0220187000F098FB1A4B1A6C40
:1004600000221A64196E1A66196E596C5A64596E14
:100470005A665A6E5A6942F080025A615A6922F0ED
:1004800080025A615A691A6942F000521A611A6967
:1004900022F000521A611B6972B60C4B1C60236873
:1004A0002A68202181F311889D4683F3088810472C
:1004B00038BD00BF0000010804000108FFFF00086C
:1004C00028240020482400200038024008ED00E0E5
:1004D0002DE9F04FC04B8246C0489C680022C260A4
:1004E0008FB0202282F31188C26800930AB101F014
:1004F00061F90023BA4AB9484FF47A7101F01EF944
:10050000002383F31188DFF8F4B2BAF1000F01D0B1
:10051000CBF800A0B34FCBF8043000253B702E463B
:100520004FF0FF38012000F031FBBAF1000F04D08A
:10053000DBF80030002B00F0C281002000F0F4F95D
:100540000390039B002BF0DB012000F015FB039BC5
:10055000213B122BE6D801A252F823F0A90500088E
:10056000C70500083906000825050008250500080C
:1005700025050008A7060008250500084107000812
:100580000108000833080008610800082505000874
:100590007908000825050008A108000803060008DE
:1005A00025050008DB0800080220FFF7FBFE0028F5
:1005B00040F0B1818C4B1B88ADF82430022109A892
:1005C00000F000FAAEE74FF47A7000F0ADF9031EC8
:1005D0000193EFDB0220FFF7E5FE81460028E9D01A
:1005E000019B581E0428E5D8DFE800F0031013161D
:1005F00019000EA8052340F8143D042100F0E2F98B
:100600004D4600F005FBFFF7D5FE81E1042172485D
:10061000F4E704217548F1E704217548EEE71C254D
:10062000284600F0FBF904350990042109A800F0E0
:10063000C9F92C2DF4D1E3E7002EBBD0002DB9D0A1
:100640000220FFF7AFFE064610B901252E46B1E79E
:10065000012000F0E1F90220387000F097FA00253F
:100660005FFA85F9484600F0EFF90135044618B104
:10067000484600F0F9F9F3E7012302203B7000F04F
:100680007BFA009B9B68A34207D9204600F0C6F97D
:10069000013040F042810434F3E700243C70CBF891
:1006A00004403546ADE7002E84D0002D82D00220D4
:1006B000387000F06BFA322000F036F9051EC4DB0A
:1006C00015F00306C1D1009A92682B199342BCD849
:1006D000B5F5807FB9D8DFF81C91AE420CDA4FF443
:1006E0007A7000F021F90390039B002BADDB039B94
:1006F00006F809300136F0E7C820FFF753FE06463A
:100700000028A2D02CB93B4B4FF0FF32D3F8008029
:100710001A60384B25F003052544A3EB0409AC42CD
:10072000BFD059F80410204600F07EF9204600F0B2
:1007300075F959F80430984240F0EF800434EEE740
:100740000220FFF72FFE00283FF434AF4FF00009DE
:10075000CA46009B9B684B4537D9B9F1000F2FD192
:10076000B8F1FF3F2CD0CDF8248023494B68BBB9AA
:100770001A46082002F0010C5208BCF1000F07D005
:1007800082F06D4282F4380282F4034282F0200249
:100790000138EFD141F823200133B3F5807FE7D151
:1007A000002209A8135C83EA0A03DBB2013251F884
:1007B0002330042A83EA1A2AF4D109F10409C8E78C
:1007C000484600F02BF90990CFE70EA8042140F825
:1007D00028AD00F0F7F814E7282400203424002086
:1007E000D103000848240020063100082C240020F2
:1007F000302400204C2400204C2500204C290020CF
:100800000EA8002340F8143D642100F0B7F800283A
:100810007FF4D0AE0220FFF7C5FD00283FF4CAAE3A
:10082000099800F033F90EAB43F8240D0421184663
:10083000CFE70EA8002340F8143D642100F09EF895
:1008400000287FF4B7AE0220FFF7ACFD00283FF48C
:10085000B1AE099800F028F90EAB43F8200DE5E79A
:100860000220FFF79FFD00283FF4A4AE00F022F91C
:100870000EAB43F81C0DD9E70220FFF793FD0028CB
:100880003FF498AE09A9142000F01AF981460EA889
:10089000042140F8189D00F095F8494609A898E70A
:1008A0004FF47A70FFF77EFD00283FF483AEB8F175
:1008B000FF3F07D1FFF77EFD194800F0FBFE0FB0A8
:1008C000BDE8F08F4146002000F0AEF8002000F0B7
:1008D000A5F88045EED0134B6DE60EA8002340F836
:1008E000143D642100F04AF800287FF463AE022032
:1008F000FFF758FD00283FF45DAEFFF75BFD41F2C6
:10090000883000F0D7FE099800F0B6F900F080F9C1
:100910004FF0000A06E6064673E63546DBE700BF01
:10092000A08601000831000837B5114B1A78013252
:10093000D2B20024012A01468DF8074011D80D4893
:1009400003681D6A4FF47A734B4301220DF10701CE
:10095000A847012805D1084B9DF807001C7003B07B
:1009600030BD4FF4FA7000F0A5FE4FF0FF30F6E70F
:10097000002400209C2900205829002038B50E4B67
:100980001A780132D2B2012A05460ED80B48036804
:100990001C6A4FF47A734B4304222946A04704286B
:1009A00003D1074B0020187038BD4FF4FA7000F0E7
:1009B00081FE4FF0FF30F7E7002400209C29002043
:1009C0005829002030B4054C2368DD69044B0A46E1
:1009D000AC460146204630BC604700BF9C29002041
:1009E000A086010070B501F0AFF8094C094E2070E7
:1009F000002530682378834208D901F09FF83368D6
:100A000005440133B5F5803F3360F2D370BD00BFBC
:100A1000592900205429002001F042B900F100605A
:100A200000F580300068704707B502AB00F1006048
:100A300043F8041D0422194600F5803001F0C2F885
:100A400003B05DF804FB0000054B1A68054B1B78EA
:100A50001344834202D9104401F070B8002070475B
:100A6000542900205929002038B5074D044628682C
:100A7000204401F06BF828B928682044BDE83840CC
:100A800001F07CB838BD00BF5429002010F00303EA
:100A900008D1B0F5007F05D800F10050A0F508405E
:100AA0000068704700207047014BC058704700BF76
:100AB000107AFF1F014B1868704700BF002004E048
:100AC000F0B52A4B1A68C2F30B03120C63B140F263
:100AD0001344A34231D040F21944A3422FD040F234
:100AE0002144A3422DD10323214C0C2505FB0343B4
:100AF0005E6893F9083042F20104A24224D0B2F5B4
:100B0000805F23D041F20104A24221D041F20304CC
:100B1000A2421FD041F20704A24208BF3123451E62
:100B20000D44013E0A46AA421ED216F9017F541C0A
:100B300097B104F8017C2246F5E70123D4E70223AC
:100B4000D2E73F230B4ED6E73323E3E74123E1E728
:100B50005A23E4E75923E2E72C20A542107001D97B
:100B6000941C5370601AF0BD1446FBE7002004E0AB
:100B7000183100080C310008022802BF024B4FF464
:100B800000129A61704700BF00040240022802BFB1
:100B9000014B20229A61704700040240022801BFE5
:100BA000024A536983F020035361704700040240F6
:100BB00010B50023934203D0CC5CC4540133F9E751
:100BC00010BD000030B5441E14F9010F0B4640B1B2
:100BD00093F90050854201F1010102D112B1013AAD
:100BE000F2E71AB193F90020801A30BD1046FCE7F5
:100BF00002460346981A13F9011B0029FAD17047DF
:100C000002440346934202D003F8011BFAE77047FF
:100C1000024B1A78024B1A70704700BF5829002007
:100C20000024002038B5104D104C284600F0A4F8E0
:100C30002146284600F0CCF823680D485A6DD2F8BA
:100C4000043843F00203C2F8043800F033FD0949C8
:100C5000206800F0BBF923685A6DD2F8043823F0FD
:100C60000203C2F8043838BD9C290020E431000892
:100C700040420F00343200087047000002684368A9
:100C80001143016003B118477047000013B5446B6E
:100C9000D4F894341A681178042916D1217C0229D9
:100CA00013D11979128901238B4013420DD101A967
:100CB00004F14C0001F0D4FD024630B1D4F8944464
:100CC000019B2179206800F0CDF902B010BD000031
:100CD000143001F043BD00004FF0FF33143001F039
:100CE0003DBD00004C3001F027BE00004FF0FF3347
:100CF0004C3001F021BE0000143001F011BD0000A5
:100D00004FF0FF31143001F00BBD00004C3001F00A
:100D1000F3BD00004FF0FF324C3001F0EDBD00009C
:100D2000D0F8942438B5136819780429054601D001
:100D3000012038BD017C0229FAD112795C89012099
:100D400090400440F4D105F1140001F0A3FC0246E8
:100D50000028EDD0D5F894544FF480732868697951
:100D600000F06EF92046E4E7406BFFF7D9BF0000C2
:100D700000207047704700007FB5124B03600023CE
:100D80004360C0E90233012502260F4B0574044677
:100D90000290019300F18402294600964FF480737B
:100DA000143001F053FC094B0294CDE9006304F5C3
:100DB00023724FF48073294604F14C0001F02CFD9E
:100DC00004B070BD68310008690D00088D0C000882
:100DD0000B68202282F311880A7903EB820290616A
:100DE0004A79093243F822008A7912B103EB82036F
:100DF000986102230374C0F89414002383F31188CC
:100E00007047000038B50446012502210430FFF781
:100E100035FF04F1140025776FF0010100F072FC3A
:100E200084F8545004F14C006FF00101BDE83840E3
:100E300000F068BC10B5012104460430FFF71EFF26
:100E40000023237784F8543010BD000038B50446E1
:100E50000025143001F012FC04F14C00257701F05C
:100E6000F3FC201D84F854500121FFF707FF2046B2
:100E7000BDE83840FFF754BF90F8443003F06003FA
:100E8000202B07D190F84530202B03D3212B03D9F9
:100E9000222B09D000207047054B83630723C363CF
:100EA00000230364012070470023C0E90E33F8E7F4
:100EB00001240020D0F8943437B51A681178042939
:100EC00004461AD1017C022917D11979128901230C
:100ED0008B40134211D100F14C05284601F08AFDE8
:100EE00058B101A9284601F0BBFCD4F89444019BF9
:100EF00021790246206800F0B5F803B030BD00004B
:100F000000EB8103F7B59C6905460E46F4B120233A
:100F100083F3118805EB8607201D0821FFF7AEFE3D
:100F2000FB685B691B684C3413B1204601F0A6FCDA
:100F300001A9204601F094FC024648B1019B3146CC
:100F4000284600F08FF8002383F3118803B0F0BD2A
:100F5000FB685A691268002AF5D01B8A013B1340CE
:100F6000F1D105F14402EAE7093138B550F82140E2
:100F7000DCB1202383F31188D4F8942413685279C8
:100F800003EB8203DB689B695D6845B1042160184F
:100F9000FFF774FE294604F1140001F085FB20469A
:100FA000FFF7BEFE002383F3118838BD70470000B1
:100FB00000F032BF012303700023C3618362036228
:100FC000C36243620363C0E90133704738B5044626
:100FD000202383F3118800254160C0E90355C0E94F
:100FE000055500F029FF0223237085F3118838BDD1
:100FF00070B500EB810305465069DA600E46144671
:1010000018B110220021FFF7FBFDA06918B11022D2
:101010000021FFF7F5FD31462846BDE8704000F09D
:10102000D1BF0000028902F001020281428902F070
:10103000010242810022C0E90422826101F058B815
:10104000F0B400EB81044789E4680125A4698D4070
:101050003D43458123600023A2606360F0BC01F042
:1010600073B80000F0B400EB81040789E46801253F
:1010700064698D403D43058123600023A260636065
:10108000F0BC01F0EDB8000070B502230025044665
:101090000370C564C0E90255C0E90455856180F854
:1010A000345000F02BFF63681B6823B129462046AB
:1010B000BDE87040184770BD436802781B6880F82F
:1010C0005020052202700BB1042118477047000020
:1010D000436890F850201B6802700BB10521184737
:1010E0007047000090F8343070B5044613B1002307
:1010F00080F8343004F14402204601F01BF86368A4
:101100009B6863BB94F8443013F0600515D194F8E4
:10111000452003F07F0343EA022340F20232934268
:1011200000F008815BD8022B00F0DB803FD8002B59
:1011300000F08680012B00F0CE800021204601F0D7
:1011400051FA0021204601F043FA63681B6813B18D
:10115000062120469847062384F8343070BD204687
:1011600098470028CED094F84B2094F84A3043EAB0
:101170000223E26B9A4288BFE36394F94430E56B43
:10118000002B4FF0200380F2F780002D00F0E68066
:10119000092284F8342083F311880021D4E90E2336
:1011A0002046FFF75FFF002383F31188D6E7B3F5EE
:1011B000817F00F0AB80B3F5407F48D0B3F5807FEE
:1011C000BBD194F84630012BB7D1B4F84C3023F0A2
:1011D0000203C4E90E55A4F84C302564C3E740F27D
:1011E000016293421DD8B3F5C06F3AD2B3F5A06F38
:1011F000A3D1B4F84430B3F5A06F0ED194F84630C3
:1012000084F84E30204600F0D1FE63681B6813B1AD
:10121000012120469847032323700023C4E90E339D
:1012200013E0B3F5106F32D040F60242934252D031
:10123000B3F5006F81D104F14F03A363012324E0D0
:1012400004F14C02A2630222E26323648BE794F868
:101250004630012B7FF471AFB4F84C3043F00203F9
:10126000B7E794F84920616894F848304E6894F8DC
:10127000471043EA0223204694F84620B04700284E
:101280003FF45BAF4368A3630368E363A5E7237898
:10129000042B10D1202383F311882046FFF7C2FED0
:1012A00085F31188636884F84F501B68032121700F
:1012B0000BB12046984794F84630002BADD084F807
:1012C0004F300423237063681B68002BA5D00221D4
:1012D00020469847A1E7354BA3630223E36300232D
:1012E000B3E794F848301D0603F00F0120460AD5F5
:1012F00000F012FF012804D002287FF41EAF2C4B0F
:10130000EAE72C4BE8E700F0F9FEF3E794F8463003
:10131000002B7FF412AF94F8483013F00F013FF424
:101320007CAF1A06204602D501F070F975E701F08E
:1013300063F972E794F84630002B7FF4FEAE94F820
:10134000483013F00F013FF468AF1B06204602D56A
:1013500001F048F961E701F03BF95EE7142284F8F7
:10136000342083F311882B462A4629462046FFF76E
:1013700067FE85F31188F1E65DB1152284F834200B
:1013800083F311880021D4E90E232046FFF758FE8D
:1013900009E70B2284F8342083F311882B462A4670
:1013A00029462046FFF75EFEE3E700BF98310008BC
:1013B000903100089431000838B590F83430044674
:1013C000152B39D8DFE803F03E38383838383E3846
:1013D000380B293938383838383838383E3E90F8A4
:1013E0004B1090F84A20C36B42EA0122934214D278
:1013F000C268128AB3FBF2F502FB15356DB92023E2
:1014000083F311882B462A462946FFF72BFE85F3E6
:1014100011880A2384F834300EE0142384F8343021
:10142000202383F3118800231A4619462046FFF72C
:1014300007FE002383F3118838BD036C03B198477E
:101440000023E7E7002101F0CDF80021204601F05C
:10145000BFF863681B6813B106212046984706232E
:10146000D8E7000090F83420152A38B5044617D87C
:101470000123934040F6416213421ED113F48015BC
:101480000FD19B020CD50B2380F83430202383F33B
:1014900011882B462A462946FFF7E4FD85F311887B
:1014A00038BDC3689B695B68002BF9D1036C03B13D
:1014B0009847002384F83430F2E7002101F092F8D5
:1014C0000021204601F084F863681B6813B10621EF
:1014D000204698470623EDE7024B0022C3E900337C
:1014E0009A6070475C290020002303748268054BD2
:1014F0001B6899689142FBD25A6803604260106091
:10150000586070475C29002008B5202383F31188B8
:10151000037C032B05D0042B0DD02BB983F311884A
:1015200008BD436900221A604FF0FF334361FFF7A3
:10153000DBFF0023F2E7D0E900231A600268536062
:10154000F2E70000002303748268054B1B6899686A
:101550009142FBD85A68036042601060586070473F
:101560005C290020054B19690874186802681A6024
:101570005360186101230374FEF7C6BE5C29002086
:1015800030B54B1C87B005460A4C10D023690A4A77
:1015900001A800F0D3F82846FFF7E4FF049B13B13D
:1015A00001A800F007F92369586907B030BDFFF7BB
:1015B000D9FFF8E75C2900200915000838B50C4D63
:1015C00041612B6981689A689142044603D8BDE85D
:1015D0003840FFF789BF1846FFF786FF01232C61CB
:1015E000014623742046BDE83840FEF78DBE00BF9B
:1015F0005C290020044B1A681B6990689B6898421C
:1016000094BF0020012070475C29002010B5084CD1
:10161000236820691A6822605460012223611A74C9
:10162000FFF790FF01462069BDE81040FEF76CBE51
:101630005C290020FFF7EABF826002220282704725
:101640008368A3F17C0243F80C2C026943F83C2C1C
:10165000426943F8382C074A43F81C2CC26843F807
:10166000102C022203F8082C002203F8072CA3F107
:10167000180070472103000810B5202383F3118858
:10168000FFF7DEFF00210446FFF798FF002383F3F6
:101690001188204610BD0000024B1B6958610F20C5
:1016A000FFF760BF5C290020202383F31188FFF738
:1016B000F3BF000008B50146202383F311880820FA
:1016C000FFF75EFF002383F3118808BD49B1064B85
:1016D00042681B6918605A60136043600420FFF77A
:1016E0004FBF4FF0FF3070475C29002003689842DD
:1016F00006D01A680260506059611846FFF7F4BEC0
:101700007047000038B504460D462068844200D179
:1017100038BD036823605C604561FFF7E5FEF4E7D0
:10172000054B03F11402C3E905224FF0FF310022FB
:10173000C3E90712704700BF5C290020F8B5C0E973
:1017400003231B4A06461046022950F8145F4FF047
:10175000804338BF022185425B6A17460AD1136273
:10176000C2E905665818C6E90055B160BDE8F84001
:1017700001F060B9106A1B1A5C18AB6802D3E41A56
:101780002D6804E0A34202D9204401F061F9AB685E
:10179000A342F4D36B68736035601E606E60B46002
:1017A000AB681C1B4FF0FF33AC60FB61F8BD00BFA2
:1017B0005C29002010B41B4C234653F8141F8142AF
:1017C00010D0D0E900210A60026851609A424FF0BF
:1017D0000001C16003D0936881680B4493605DF899
:1017E000044B70470A68626100209A425360C860E7
:1017F00003D15DF8044B01F025B993688868034470
:1018000093604FF08042206A526A121A9342E6D9DE
:10181000991A012998BF931C18445DF8044B01F0F4
:1018200017B900BF5C29002000207047FEE70000C8
:10183000704700004FF0FF3070470000022906D0CB
:10184000032906D00129064818BF00207047054823
:101850007047032A9ABF044800EBC200002070477B
:1018600090320008443200080824002070B5044675
:1018700008460D46FFF7BCF9C6B22046013403788E
:101880000BB9184670BD32462946FFF79BF9002870
:10189000F3D10120F6E700002DE9F04F81469BB01F
:1018A00008460D461646FFF7A3F93D49C4B228463F
:1018B000FFF7DCFF08B10434E4B23A492846FFF7E9
:1018C000D5FF08B11034E4B2632C01AF5BD92946CF
:1018D000384601F00FFC3846FFF78AF9C0B2431CC6
:1018E0005B00C9E9003633700323737000230236AE
:1018F0001946DAB2904206F102064AD81BB0BDE89A
:10190000F08FB8F1250F39D1072225492846FFF776
:1019100059F9A8B9DBF800202260DBF804206260E6
:10192000BBF8082022819BF80A20A27207350B34ED
:1019300095F80080B8F1000FE3D184F80080CAE781
:10194000082218492846FFF73DF9B8B91648A21CE5
:1019500010F8011B154B4FEA111C01F00F011CF888
:101960000AC011F80A1002F802CC984202F8011CD1
:1019700002F10202ECD118340835D9E784F800806E
:1019800001350134D4E73C46DFF824A0DFF824B069
:10199000CEE7FA5C06F8022C06F8011C0133A8E732
:1019A000EC310008F4310008107AFF1F1C7AFF1F89
:1019B00009320008FD31000808B5202383F311889F
:1019C0000348FFF777FA002383F3118808BD00BFAF
:1019D0009C29002010B50446052916D8DFE801F03F
:1019E00016150316161D202383F311880E4A0121B4
:1019F000FFF7FEFA20460D4A0221FFF7F9FA0C48DC
:101A0000FFF724FA002383F3118810BD202383F30A
:101A100011880748FFF7F6F9F4E7202383F31188CC
:101A20000348FFF707FAEDE79C310008C0310008D2
:101A30009C29002038B50C4D0C4C0D492A4604F168
:101A40000800FFF729FF05F1CA0204F11000094957
:101A5000FFF722FF05F5CA7204F118000649BDE838
:101A60003840FFF719BF00BF642E00200824002073
:101A70001C32000826320008F4310008BFF34F8FF3
:101A8000024AD368DB03FCD4704700BF003C02402D
:101A900008B5094B1B7873B9FFF7F0FF074B1A69BC
:101AA000002ABFBF064A5A6002F188325A601A689B
:101AB00022F480621A6008BDC2300020003C02405F
:101AC0002301674508B50B4B1B7893B9FFF7D6FF89
:101AD000094B1A6942F000421A611A6842F48052B6
:101AE0001A601A6822F480521A601A6842F48062FE
:101AF0001A6008BDC2300020003C02400B2870B5BF
:101B000013D80B4A0B4C137863B90B4E4FF000619E
:101B100044F8231056F8235001330C2B2944F7D1F5
:101B20000123137054F8200070BD0020FCE700BFB3
:101B3000F4300020C4300020B0320008014B53F8CC
:101B400020007047B03200080C2070470B2810B5F9
:101B5000044601D9002010BDFFF7D0FF064B53F813
:101B600024301844C21A0BB90120F4E7126801327C
:101B7000F0D1043BF6E700BFB03200080B2808B5EF
:101B80001BD8FFF77BFFFFF783FF0D49F323CB60E3
:101B9000FFF774FFC300DBB243F4007343F00203AA
:101BA0000B610B6943F480330B61FFF767FFFFF7AD
:101BB00089FFBDE80840FFF7C9BF002008BD00BF8E
:101BC000003C02402DE9F843D407154637D41318DA
:101BD000B3F1016F33D2304B1B68DA072FD52F4C8E
:101BE000FFF756FFF323E360FFF748FF2F46401A45
:101BF00040F20129032F884601EB000601D9B30703
:101C000005D00E46254C394440F2011836E02369D0
:101C100023F440732361236943EA090323610B68BA
:101C20003360BFF34F8FFFF729FFE36853B1F3230E
:101C3000E360236923F001032361FFF743FF4FF0C3
:101C4000FF3027E03668D8F80030B34201F10401D4
:101C5000EFD1043FCEE723F440732361236943EAC5
:101C60000803236133883B80BFF34F8FFFF706FFE4
:101C70003F8836F8023BBFB2BB42DAD18B1B012B47
:101C800006EB00072369E6D823F001032361FFF781
:101C900019FF2846BDE8F88300380240003C0240A6
:101CA000084908B50B7828B11BB9FFF7F1FE0123ED
:101CB0000B7008BD002BFCD0BDE808400870FFF792
:101CC00001BF00BFC2300020014B186D704700BF3C
:101CD00000280040094B1A6F120407D41A6F42F40F
:101CE00000721A671A6F42F400421A67044A1368B6
:101CF00043F480731360034B18657047003802404B
:101D0000007000400028004070470000FEE700001F
:101D1000084A094B09498B4204D3094A00219342DE
:101D200005D3704752F8040F43F8040BF3E743F868
:101D3000041BF4E75C340008E8330020E83300209B
:101D4000E833002030B5D0E9154300229D681146E4
:101D50004FF0FF3004EB421301329542C3F80019F3
:101D6000C3F81019C3F80809C3F8001BC3F8101B07
:101D7000C3F8080BEED24FF00113C4F81C3830BD85
:101D8000890141F02001016103699B06FCD4122006
:101D900000F0E6BE1F4B03EB80022DE9F047D2F8BE
:101DA0000CC05D6DDCF81420461CD2F800E005EB99
:101DB000063605EB4018516871450BD3D5F8342829
:101DC000012303FA00F022EA0000C5F8340818469F
:101DD000BDE8F087BCF81040AEEB0103A34228BF7A
:101DE0002346D8F81849A4B2B3EB840F10D89468EE
:101DF0001F46A4F1040959F804AFC6F800A0042F47
:101E000001D9043FF7E71C440B4494605360D2E7C8
:101E10000020DDE7F830002010B5054C2046FFF724
:101E2000C9F84FF0A0436365024BA36510BD00BF26
:101E3000F8300020043300080378012B70B5054604
:101E40004DD1284B446D98421BD1274B5A6B42F021
:101E500080025A635A6D42F080025A655A6D5A697F
:101E600042F080025A615A6922F080025A610E21C2
:101E700043205B6900F0D4FB1C4BE3601C4BC4F8AF
:101E800000380023C4F8003EC02323604FF404133D
:101E9000A3636E6D202000F063FE0123336133697C
:101EA000DB07FCD4122000F05BFE3369002BFCDA68
:101EB0000026A6602846FFF745FF6B68C4F8106847
:101EC000DB68C4F81468C4F81C684BB9094BA361FB
:101ED0004FF0FF336361A36843F00103A36070BD5B
:101EE000054BF4E7F8300020003802404014004071
:101EF00003002002003C30C0083C30C0F8B5446DFF
:101F0000054600212046FFF73BFFA96D00234FF057
:101F100001128F68C4F834384FF00066C4F81C28EA
:101F20004FF0FF3004EB431201339F42C2F80069C7
:101F3000C2F8006BC2F80809C2F8080BF2D20B68AD
:101F40006A6DEB65636210231361166916F0100663
:101F5000FBD1122000F004FED4F8003823F4FE6315
:101F6000C4F80038A36943F4402343F01003A3618D
:101F70000923C4F81038C4F814380A4BEB604FF04A
:101F8000C043C4F8103B084BC4F8003BC4F81069C8
:101F9000C4F80039EB6D03F1100243F48013EA65D5
:101FA000A362F8BDE032000840800010426D90F856
:101FB0004E10D2F8003823F4FE6343EA0113C2F84E
:101FC000003870472DE9F8430EB200EB86090D4644
:101FD000D9F80C20176807F00303022B55D0032B08
:101FE00055D03E4F3E49012B18BF0F46446D690145
:101FF00063184FF0000CC3F810CB05F110034FF03D
:10200000010C0CFA03FC9369002B42D0B2F812E0E9
:1020100005F158035B014EEA070E44F803E0D4F8DB
:102020001C3843EA0C032144C4F81C380023C1F8CF
:10203000103953694FF00108691E08FA05F8ABB36F
:10204000138A928B9B08012A88BF5343C26D9E1846
:1020500042EA034301F1400204EB8202C6652946CD
:1020600053602046FFF78CFED9F80C301B8A43EAF8
:10207000855348356D011F436751D4F81C3843EA36
:102080000803C4F81C38BDE8F883164FAEE7164FB6
:10209000ACE704EB461EDEF8003B23F40043CEF829
:1020A000003BD4F81C3823EA0C03BCE705F13F03DE
:1020B00004EB83030D4A5A6004EB4616294620467A
:1020C000FFF75EFED6F8003923F40043C6F8003966
:1020D000D4F81C3823EA0803D3E700BF00800410BB
:1020E000008000100080081000800C100004000226
:1020F000826D1268C265FFF725BE00005831436D3E
:1021000049015B5813F4004004D013F4001F14BFBE
:1021100001200220704700004831436D49015B589F
:1021200013F4004004D013F4001F14BF0120022058
:102130007047000000EB8101CB68196A0B681360DF
:102140004B6853607047000000EB810330B5DD68D9
:10215000AA691368D36019B9402B84BF4023136068
:102160006B8A1468426D1C44013CB4FBF3F4634376
:10217000033323F0030302EB411043EAC44343F06B
:10218000C043C0F8103B2B6803F00303012B09B2D6
:102190000ED1D2F8083802EB411013F4807FD0F84A
:1021A000003B14BF43F0805343F00053C0F8003BA2
:1021B00002EB4112D2F8003B43F00443C2F8003B6B
:1021C00030BD00002DE9F041244D6E6D06EB40134B
:1021D0000446D3F8087BC3F8087B38070AD5D6F83D
:1021E0001438190706D505EB84032146DB68284619
:1021F0005B689847FA071FD5D6F81438DB071BD55C
:1022000005EB8403D968CCB98B69488A5E68B6FB54
:10221000F0F200FB12628AB91868DA6890420DD2B7
:10222000121AC3E90024202383F311880B482146A6
:10223000FFF78AFF84F31188BDE8F081012303FAD8
:1022400004F26B8923EA02036B81CB68002BF3D085
:1022500021460248BDE8F041184700BFF830002091
:1022600000EB810370B5DD68436D6C692668E6603C
:102270004A0156BB1A444FF40020C2F810092A68DC
:1022800002F00302012A0AB20ED1D3F8080803EBC8
:10229000421410F4807FD4F8000914BF40F080503D
:1022A00040F00050C4F8000903EB4212D2F80009D4
:1022B00040F00440C2F80009D3F83408012202FAC1
:1022C00001F10143C3F8341870BD19B9402E84BF21
:1022D0004020206020682E8A841940F00050013C84
:1022E0001A44B4FBF6F440EAC440C6E7F8B5044625
:1022F0001E48456D05EB4413D3F80869C3F8086917
:10230000F10717D5D5F81038DA0713D500EB840399
:10231000D9684B691F68DA68974218D2D21B002728
:102320001A605F60202383F311882146FFF798FF2E
:1023300087F31188330617D5D5F834280123A34035
:10234000134211D02046BDE8F840FFF723BD01231A
:1023500003FA04F2038923EA020303818B68002B4A
:10236000E8D021469847E5E7F8BD00BFF8300020E7
:1023700096482DE9F84F456D6E69AB691E4016F41D
:10238000805F6E61044605D0FEF77EFEBDE8F84F23
:1023900000F078BC002E12DAD5F8003E8B489B077F
:1023A0001EBFD5F8003E23F00303C5F8003ED5F864
:1023B000043823F00103C5F80438FEF789FE370519
:1023C00002D58248FEF778FEB0040CD5D5F808385F
:1023D00013F0060FEB6823F470530CBF43F4105353
:1023E00043F4A053EB60310704D56368DB680BB19D
:1023F00076489847F2025AD4B3020CD5D4F85480E8
:10240000DFF8C8A100274FF00109A36D9B68F9B25E
:102410008B4280F08780F70619D5616D0A6AC2F396
:102420000A1702F00F0302F4F012B2F5802F00F049
:10243000A180B2F5402F0AD104EB830301F580514E
:10244000DB68186A00231A469F4240F087803003F9
:10245000D5F8184813D5E10302D50020FFF7B2FEE6
:10246000A20302D50120FFF7ADFE630302D50220CF
:10247000FFF7A8FE270302D50320FFF7A3FE75038D
:1024800084D5E00702D50020FFF730FFA10702D571
:102490000120FFF72BFF620702D50220FFF726FF7E
:1024A00023077FF573AF0320FFF720FF6EE7D4F813
:1024B0005480DFF818A100274FF00109A36D9B6835
:1024C0005FFA87FB5B4597D308EB4B13D3F80029E2
:1024D00002F44022B2F5802F22D1D3F80029002A3D
:1024E0001EDAD3F8002942F09042C3F80029D3F84D
:1024F0000029002AFBDB5946606DFFF741FC228969
:1025000009FA0BF322EA0303238104EB8B03DB6854
:102510009B6813B15946504698475846FFF73AFC16
:102520000137CBE708EB4112D2F8003B03F440231C
:10253000B3F5802F10D1D2F8003B002B0CDA628962
:1025400009FA01F322EA0303638104EB8103DB68E8
:10255000DB680BB150469847013756E79C0708BF28
:102560000A68072B98BF027003F101039CBF120A8F
:10257000013069E7023304EB830201F580515268B0
:102580009069D0F808E0D0E90020A2EB000C00220E
:10259000104697420AD104EB830463689B699A68EA
:1025A0003A449A605A6817445F6050E712F0030F8C
:1025B00008BF0868944588BF8EF8000002F1010248
:1025C00084BF000A0EF1010EE3E700BFF8300020DF
:1025D000436D03EB4111D1F8003B43F40013C1F804
:1025E000003B7047436D03EB4111D1F8003943F4D0
:1025F0000013C1F800397047436D03EB4111D1F866
:10260000003B23F40013C1F8003B7047436D03EB1C
:102610004111D1F8003923F40013C1F80039704793
:1026200000F1604300F01F02400903F56143090116
:102630008000C9B200F1604083F8001300F56140EA
:1026400001239340C0F880310360704730B5039C8C
:102650000172043304FB0325C0E90653049B0363A2
:102660000021059BC160C0E90000C0E90422C0E967
:102670000842C0E90A11436330BD0000416A0022EC
:10268000C0E90411C260C0E90A226FF00101FFF73E
:1026900039B80000D0E90432934201D1C2680AB9C6
:1026A000181D70470020704703691960C268013225
:1026B000C260C269134482690361934224BF436AC2
:1026C00003610021FFF712B838B504460D46E368F0
:1026D0003BB16269131D1268A3621344E3620020D8
:1026E00007E0237A33B929462046FEF7EFFF00289A
:1026F000EDDA38BD6FF00100FBE70000C368C26986
:10270000013BC3604369134482694361934224BF20
:10271000436A436100238362036B03B11847704728
:1027200070B52023044683F31188866A3EB9FFF70B
:10273000CBFF054618B186F31188284670BDA36A01
:10274000E26A13F8015BA362934202D32046FFF7CB
:10275000D5FF002383F31188EFE700002DE9F74F41
:102760001F4604460E469146202383F311884FF0FE
:1027700080480025D8F82430FB18009307F1FF3A71
:10278000AB46A36AABB91AF1030F06D93946204606
:10279000FFF79AFF68B1002305E0D8F82410009AEB
:1027A000511A8F42F3D283F31188284603B0BDE853
:1027B000F08FD4E90A13A9EB05025B1A934228BFF4
:1027C0001346402B1CD9334601F1400251F8040B4B
:1027D00043F8040B9142F9D1A36A40334036A36217
:1027E0004035D4E90A239A4202D32046FFF786FFF8
:1027F0008BF311884D45D8D2202383F31188C0E78D
:102800001A4630460193FEF7D3F9019BA26A1A4497
:102810001E44A2621D44E4E710B5029C0172043319
:1028200004FB0321C0E906130023C0E90A33039B1C
:102830000363049BC460C0E90000C0E90422C0E94E
:102840000842436310BD0000026AC260426AC0E9E8
:1028500004220022C0E90A226FF00101FEF752BFF4
:10286000D0E904239A4201D1C26822B9184650F82F
:10287000043B0B607047002070470000C368C269CA
:102880000133C3604369134482694361934224BFA7
:10289000436A43610021FEF729BF000038B50446B2
:1028A0000D46E3683BB123691A1DA262E269134435
:1028B000E362002007E0237A33B929462046FEF779
:1028C00005FF0028EDDA38BD6FF00100FBE70000DE
:1028D00003691960C268013AC260C269134482691F
:1028E0000361934224BF436A036100238362036B45
:1028F00003B118477047000070B5202304460E4608
:1029000083F31188856A35B91146FFF7C7FF10B107
:1029100085F3118870BDA36A1E70A36AE26A013351
:102920009342A36204D3E16920460439FFF7D0FF44
:10293000002080F31188EDE72DE9F74F1F4604468C
:102940000D469146202383F311884FF080480026DE
:10295000D8F82430FB18009307F1FF3AB346A36A76
:10296000ABB91AF1030F06D939462046FFF796FF97
:1029700068B1002305E0D8F82410009A511A8F425C
:10298000F3D283F31188304603B0BDE8F08FD4E969
:102990000A03A9EB06021B1A934228BF1346402BD9
:1029A0001CD905F1400355F8042B40F8042B9D4237
:1029B000F9D1A36A4033A3624036D4E90A239A428C
:1029C00004D3E16920460439FFF782FF8BF31188B5
:1029D0004E45D8D2202383F31188C0E71A462946F2
:1029E0000193FEF7E5F8019BA26A1A441D44A26216
:1029F0001E44E2E7D0E904239A4217D1C3689BB191
:102A0000836A8BB1043B9B1A0ED01360C368013BF1
:102A1000C360C3691A44836902619A4224BF436A4E
:102A20000361002383620123184670470023FBE7FC
:102A300000F06AB94FF08043002258631A61022205
:102A4000DA6070474FF080430022DA607047000080
:102A50004FF0804358637047FEE7000010B5174CF5
:102A6000FEF73AFDFEF75CFE802215492046FEF790
:102A7000E3FD012344F8180C0374124B124AD96881
:102A800021F4E0610904090C0A431049DA60CA68BC
:102A900042F08072CA600E490A6842F001020A6080
:102AA0001022DA77202283F82220002383F3118872
:102AB00062B60848BDE81040FEF7DEBD842900205C
:102AC0001033000800ED00E00003FA05F0ED00E02F
:102AD000001000E0183300082DE9F84F1F4C4FF0AC
:102AE0000008656904F11407C1464FF08043266A67
:102AF0005B6AAA689E1B96421DD34FF0200AAA6803
:102B0000236AD5F80CB0134423622B68BB425F6084
:102B1000A6EB02066361C5F80C8001D1FFF792FFB6
:102B200089F311882869D8478AF311886569AB68E9
:102B30009E42E4D2D9E76269BA420CD0916823621E
:102B40008E1B9660A86802282CBF1818981CBDE838
:102B5000F84FFFF77DBFBDE8F88F00BF5C2900206C
:102B6000034B59685A68521A9042FBD8704700BF0D
:102B7000001000E04B6843608B688360CB68C360E3
:102B80000B6943614B6903628B6943620B680360A5
:102B90007047000008B5224B22481A6940F2FF1125
:102BA0000A431A611A6922F4FF7222F001021A61C3
:102BB0001A691A6B0A431A631A6D0A431A651A4A8C
:102BC0001B6D1146FFF7D6FF184802F11C01FFF7F5
:102BD000D1FF174802F13801FFF7CCFF154802F189
:102BE0005401FFF7C7FF144802F17001FFF7C2FF5D
:102BF000124802F18C01FFF7BDFF114802F1A80154
:102C0000FFF7B8FF0F4802F1C401FFF7B3FF0E480A
:102C100002F1E001FFF7AEFFBDE8084000F0DEB8CA
:102C2000003802400000024038330008000402402F
:102C300000080240000C0240001002400014024054
:102C400000180240001C02400020024008B500F0BD
:102C500035FAFFF703FFBDE80840FEF7EBBE0000C2
:102C600070470000064A536823F001035360EFF3F6
:102C70000983683383F30988002383F3118870473D
:102C800030EF00E010B5202383F31188104B5B6810
:102C900013F4006318D0F1EE103AEFF309844FF00B
:102CA000807344F84C3C0B4BDB6844F8083CA4F1BF
:102CB000680383F30988FEF79DFC18B1064B44F8BE
:102CC000503C10BD054BFAE783F31188F9E700BFCC
:102CD00000ED00E030EF00E03103000834030008AD
:102CE0004FF0804310B51A69920708D500241C6183
:102CF000202383F31188FFF7EFFE84F31188BDE8EA
:102D00001040FFF7BFBF0000104B1A6C42F00102E9
:102D10001A641A6E42F001021A660D4A1B6E93681D
:102D200043F0010393604FF0804353229A624FF0C7
:102D3000FF32DA6200229A615A63DA605A60012235
:102D40005A6108211A601C20FFF76ABC0038024053
:102D5000002004E01F4B1A696FEAC2526FEAD25298
:102D60001A611A69C2F308021A614FF0FF301A693A
:102D70005A69586100215A6959615A691A6A62F0A0
:102D800080521A621A6A02F080521A621A6A5A6AE9
:102D900058625A6A59625A6A1A6C42F080521A642E
:102DA0001A6E42F080521A661A6E0B4A106840F48E
:102DB00080701060186F00F44070B0F5007F1EBF87
:102DC0004FF4803018671967536823F40073536019
:102DD00000F054B90038024000700040304B4FF012
:102DE00080521A642F4A4FF4404111601A6842F031
:102DF00001021A601A689207FCD59A6822F0030251
:102E00009A60274B19469A6812F00C02FBD1186899
:102E100000F0F90018609A601A6842F480321A6073
:102E20000B689B03FCD54B6F43F001034B671C4BB6
:102E30005A6F9007FCD51C4A5A601A6842F080729B
:102E40001A60184A53685904FCD5154B1A68920148
:102E5000FCD5164A9A60164B1A68164B9A42164BC6
:102E60001BD1164A1168164A914216D140F205123A
:102E70001A600B4B9A6842F002029A609A6802F05C
:102E80000C02082AFAD15A6C42F480425A645A6EF3
:102E900042F480425A665B6E704740F20572E7E783
:102EA0000038024000700040085440070094883801
:102EB000002004E011640020003C024000ED00E02E
:102EC00041C20F41084A08B5516913680B4003F02D
:102ED0000103536123B1054A13680BB15068984749
:102EE000BDE80840FFF7CEBE003C0140683300203B
:102EF000084A08B5516913680B4003F00203536197
:102F000023B1054A93680BB1D0689847BDE80840E3
:102F1000FFF7B8BE003C014068330020084A08B5FE
:102F2000516913680B4003F00403536123B1054A50
:102F300013690BB150699847BDE80840FFF7A2BE7E
:102F4000003C014068330020084A08B55169136805
:102F50000B4003F00803536123B1054A93690BB199
:102F6000D0699847BDE80840FFF78CBE003C01409F
:102F700068330020084A08B5516913680B4003F014
:102F80001003536123B1054A136A0BB1506A984785
:102F9000BDE80840FFF776BE003C014068330020E2
:102FA000174B10B55A691C68144004F478725A61C2
:102FB000A30604D5134A936A0BB1D06A98476006FA
:102FC00004D5104A136B0BB1506B9847210604D5FA
:102FD0000C4A936B0BB1D06B9847E20504D5094AB4
:102FE000136C0BB1506C9847A30504D5054A936C3C
:102FF0000BB1D06C9847BDE81040FFF743BE00BF4F
:10300000003C0140683300201A4B10B55A691C6817
:10301000144004F47C425A61620504D5164A136DCB
:103020000BB1506D9847230504D5134A936D0BB12E
:10303000D06D9847E00404D50F4A136E0BB1506E63
:103040009847A10404D50C4A936E0BB1D06E9847F3
:10305000620404D5084A136F0BB1506F98472304DC
:1030600004D5054A936F0BB1D06F9847BDE8104067
:10307000FFF708BE003C014068330020062108B578
:103080000846FFF7CDFA06210720FFF7C9FA062107
:103090000820FFF7C5FA06210920FFF7C1FA06212B
:1030A0000A20FFF7BDFA06211720FFF7B9FA06211B
:1030B0002820BDE80840FFF7B3BA000008B5FFF7C5
:1030C00049FE00F00BF8FDF773FFFDF753FEFFF725
:1030D000C7FDBDE80840FFF7ABBC00000023044972
:1030E0001A465A50C8180833802B4260F9D17047ED
:1030F00068330020034611F8012B03F8012B002A46
:10310000F9D17047121012131211000053544D33AD
:1031100032463F3F3F000000000000000C31000835
:103120003F00000013040000483100083F00000089
:1031300019040000523100083F0000002104000083
:103140005C3100083F00000053544D3332463430A8
:10315000780053544D3332463432780053544D3353
:10316000324634343658580000000000ED0C000898
:10317000D90C0008150D0008010D00080D0D000800
:10318000F90C0008E50C0008D10C0008710D0008CE
:10319000000000000100000000000000020000002C
:1031A00000000000010F0008690F00084000400007
:1031B000342E0020442E00200200000000000000F9
:1031C0000300000000000000AD0F00080000000038
:1031D00010000000542E002000000000010000003C
:1031E00000000000F83000200101020025424F419C
:1031F000524425002553455249414C2500737065C2
:103200006564796265656634003031323334353651
:1032100037383941424344454600000041726475E5
:1032200050696C6F740025424F415244252D424C29
:1032300000000000D51900083D180008790E0008AC
:10324000B9190008430000004C320008090243008D
:10325000020100C03209040000010202010005243D
:1032600000100105240100010424020205240600C7
:1032700001070582030800FF09040100020A00009B
:103280000007050102400000070581024000000020
:1032900012000000983200081201100102000040E4
:1032A00083044057000201020301000004030904E3
:1032B000004000000040000000400000004000000E
:1032C00000000100000002000000020000000200F7
:1032D00000000200000002000000020000000200E6
:1032E00000000000E5100008B9130008651400088C
:1032F00040004000583100205831002001000000FB
:103300006831002080000000400100000300000040
:103310006D61696E000000003033000870310020DC
:103320006833002001000000592A00080000000056
:1033300069646C650000000000008002000000006D
:10334000AAAAAAAA00000000FFFF000000000000D7
:1033500000A00A000004000000000000AAAAAAAA17
:1033600000000000DFFF000000000000000000007F
:103370000000000000000000AAAAAAAA00000000A5
:10338000FFFF00000000000000000000000000003F
:1033900000000000AAAAAAAA00000000FFFF000087
:1033A000000000000000000000000000000000001D
:1033B000AAAAAAAA00000000FFFF00000000000067
:1033C000000000000000000000000000AAAAAAAA55
:1033D00000000000FFFF00000000000000000000EF
:1033E0000000000000000000AAAAAAAA0000000035
:1033F000FFFF0000000000000000000000000000CF
:10340000000000000A0000000000000003000000AF
:1034100000000000000000000000000000000000AC
:10342000000000000000000000000000000000009C
:103430000000000000000000FF00960000000008EF
:1034400004000000AC320008000000000000000092
:10345000000000000000000000000000000000006C
:00000001FF
